{
  "_format": "hh-sol-artifact-1",
  "contractName": "DataEscrow",
  "sourceName": "contracts/DataEscrow.sol",
  "abi": [
    {
      "inputs": [
        {
          "internalType": "address",
          "name": "_owner",
          "type": "address"
        },
        {
          "internalType": "address",
          "name": "_feeRecipient",
          "type": "address"
        },
        {
          "internalType": "uint256",
          "name": "_feeBps",
          "type": "uint256"
        }
      ],
      "stateMutability": "nonpayable",
      "type": "constructor"
    },
    {
      "anonymous": false,
      "inputs": [
        {
          "indexed": true,
          "internalType": "bytes32",
          "name": "id",
          "type": "bytes32"
        },
        {
          "indexed": true,
          "internalType": "address",
          "name": "payer",
          "type": "address"
        },
        {
          "indexed": true,
          "internalType": "address",
          "name": "payee",
          "type": "address"
        },
        {
          "indexed": false,
          "internalType": "address",
          "name": "token",
          "type": "address"
        },
        {
          "indexed": false,
          "internalType": "uint256",
          "name": "amount",
          "type": "uint256"
        }
      ],
      "name": "Deposited",
      "type": "event"
    },
    {
      "anonymous": false,
      "inputs": [
        {
          "indexed": false,
          "internalType": "uint256",
          "name": "feeBps",
          "type": "uint256"
        },
        {
          "indexed": false,
          "internalType": "address",
          "name": "feeRecipient",
          "type": "address"
        }
      ],
      "name": "FeeUpdated",
      "type": "event"
    },
    {
      "anonymous": false,
      "inputs": [
        {
          "indexed": false,
          "internalType": "address",
          "name": "newOwner",
          "type": "address"
        }
      ],
      "name": "OwnerUpdated",
      "type": "event"
    },
    {
      "anonymous": false,
      "inputs": [
        {
          "indexed": true,
          "internalType": "bytes32",
          "name": "id",
          "type": "bytes32"
        },
        {
          "indexed": true,
          "internalType": "address",
          "name": "payer",
          "type": "address"
        },
        {
          "indexed": false,
          "internalType": "uint256",
          "name": "amount",
          "type": "uint256"
        }
      ],
      "name": "Refunded",
      "type": "event"
    },
    {
      "anonymous": false,
      "inputs": [
        {
          "indexed": true,
          "internalType": "bytes32",
          "name": "id",
          "type": "bytes32"
        },
        {
          "indexed": true,
          "internalType": "address",
          "name": "payee",
          "type": "address"
        },
        {
          "indexed": false,
          "internalType": "uint256",
          "name": "netAmount",
          "type": "uint256"
        },
        {
          "indexed": false,
          "internalType": "uint256",
          "name": "fee",
          "type": "uint256"
        }
      ],
      "name": "Released",
      "type": "event"
    },
    {
      "inputs": [
        {
          "internalType": "bytes32",
          "name": "id",
          "type": "bytes32"
        },
        {
          "internalType": "address",
          "name": "payee",
          "type": "address"
        },
        {
          "internalType": "address",
          "name": "token",
          "type": "address"
        },
        {
          "internalType": "uint256",
          "name": "amount",
          "type": "uint256"
        }
      ],
      "name": "depositERC20",
      "outputs": [],
      "stateMutability": "nonpayable",
      "type": "function"
    },
    {
      "inputs": [
        {
          "internalType": "bytes32",
          "name": "id",
          "type": "bytes32"
        },
        {
          "internalType": "address",
          "name": "payee",
          "type": "address"
        }
      ],
      "name": "depositNative",
      "outputs": [],
      "stateMutability": "payable",
      "type": "function"
    },
    {
      "inputs": [
        {
          "internalType": "address",
          "name": "token",
          "type": "address"
        },
        {
          "internalType": "address",
          "name": "to",
          "type": "address"
        },
        {
          "internalType": "uint256",
          "name": "amount",
          "type": "uint256"
        }
      ],
      "name": "emergencyWithdraw",
      "outputs": [],
      "stateMutability": "nonpayable",
      "type": "function"
    },
    {
      "inputs": [
        {
          "internalType": "bytes32",
          "name": "",
          "type": "bytes32"
        }
      ],
      "name": "escrows",
      "outputs": [
        {
          "internalType": "address",
          "name": "payer",
          "type": "address"
        },
        {
          "internalType": "address",
          "name": "payee",
          "type": "address"
        },
        {
          "internalType": "address",
          "name": "token",
          "type": "address"
        },
        {
          "internalType": "uint256",
          "name": "amount",
          "type": "uint256"
        },
        {
          "internalType": "bool",
          "name": "released",
          "type": "bool"
        },
        {
          "internalType": "bool",
          "name": "refunded",
          "type": "bool"
        },
        {
          "internalType": "uint64",
          "name": "createdAt",
          "type": "uint64"
        }
      ],
      "stateMutability": "view",
      "type": "function"
    },
    {
      "inputs": [],
      "name": "feeBps",
      "outputs": [
        {
          "internalType": "uint256",
          "name": "",
          "type": "uint256"
        }
      ],
      "stateMutability": "view",
      "type": "function"
    },
    {
      "inputs": [],
      "name": "feeRecipient",
      "outputs": [
        {
          "internalType": "address",
          "name": "",
          "type": "address"
        }
      ],
      "stateMutability": "view",
      "type": "function"
    },
    {
      "inputs": [],
      "name": "owner",
      "outputs": [
        {
          "internalType": "address",
          "name": "",
          "type": "address"
        }
      ],
      "stateMutability": "view",
      "type": "function"
    },
    {
      "inputs": [
        {
          "internalType": "bytes32",
          "name": "id",
          "type": "bytes32"
        }
      ],
      "name": "refund",
      "outputs": [],
      "stateMutability": "nonpayable",
      "type": "function"
    },
    {
      "inputs": [
        {
          "internalType": "bytes32",
          "name": "id",
          "type": "bytes32"
        }
      ],
      "name": "release",
      "outputs": [],
      "stateMutability": "nonpayable",
      "type": "function"
    },
    {
      "inputs": [
        {
          "internalType": "uint256",
          "name": "_feeBps",
          "type": "uint256"
        },
        {
          "internalType": "address",
          "name": "_feeRecipient",
          "type": "address"
        }
      ],
      "name": "setFee",
      "outputs": [],
      "stateMutability": "nonpayable",
      "type": "function"
    },
    {
      "inputs": [
        {
          "internalType": "address",
          "name": "_owner",
          "type": "address"
        }
      ],
      "name": "setOwner",
      "outputs": [],
      "stateMutability": "nonpayable",
      "type": "function"
    }
  ],
  "bytecode": "0x608060405234801561001057600080fd5b5060405161154338038061154383398101604081905261002f91610149565b60016000556001600160a01b0383166100785760405162461bcd60e51b815260206004820152600760248201526606f776e65723d360cc1b604482015260640160405180910390fd5b600180546001600160a01b038581166001600160a01b03199283161790925560028054928516929091168217905560038290556040805183815260208101929092527f7cfad8b150be9751a5386cc4e0f549618032ff63d14fab4f77cd4b0aaaedc242910160405180910390a16001546040516001600160a01b0390911681527f4ffd725fc4a22075e9ec71c59edf9c38cdeb588a91b24fc5b61388c5be41282b9060200160405180910390a1505050610185565b80516001600160a01b038116811461014457600080fd5b919050565b60008060006060848603121561015e57600080fd5b6101678461012d565b92506101756020850161012d565b9150604084015190509250925092565b6113af806101946000396000f3fe60806040526004361061009c5760003560e01c80637249fbb6116100645780637249fbb61461021157806380a6de92146102315780638da5cb5b14610244578063b4f2e8b814610264578063e63ea40814610284578063f4371f63146102a457600080fd5b806313af4035146100a157806324a9d853146100c35780632d83549c146100ec57806346904840146101b957806367d42a8b146101f1575b600080fd5b3480156100ad57600080fd5b506100c16100bc3660046111c0565b6102c4565b005b3480156100cf57600080fd5b506100d960035481565b6040519081526020015b60405180910390f35b3480156100f857600080fd5b506101666101073660046111e2565b6004602081905260009182526040909120805460018201546002830154600384015493909401546001600160a01b039283169491831693919092169160ff8082169161010081049091169067ffffffffffffffff620100009091041687565b604080516001600160a01b03988916815296881660208801529490961693850193909352606084019190915215156080830152151560a082015267ffffffffffffffff90911660c082015260e0016100e3565b3480156101c557600080fd5b506002546101d9906001600160a01b031681565b6040516001600160a01b0390911681526020016100e3565b3480156101fd57600080fd5b506100c161020c3660046111e2565b61038b565b34801561021d57600080fd5b506100c161022c3660046111e2565b61080f565b6100c161023f3660046111fb565b610acd565b34801561025057600080fd5b506001546101d9906001600160a01b031681565b34801561027057600080fd5b506100c161027f3660046111fb565b610b47565b34801561029057600080fd5b506100c161029f366004611227565b610bd2565b3480156102b057600080fd5b506100c16102bf366004611263565b610dc8565b6001546001600160a01b031633146102f75760405162461bcd60e51b81526004016102ee906112a7565b60405180910390fd5b6001600160a01b0381166103375760405162461bcd60e51b815260206004820152600760248201526606f776e65723d360cc1b60448201526064016102ee565b600180546001600160a01b0319166001600160a01b0383169081179091556040519081527f4ffd725fc4a22075e9ec71c59edf9c38cdeb588a91b24fc5b61388c5be41282b9060200160405180910390a150565b6001546001600160a01b031633146103b55760405162461bcd60e51b81526004016102ee906112a7565b6002600054036103d75760405162461bcd60e51b81526004016102ee906112cb565b6002600090815581815260046020526040902060038101546104275760405162461bcd60e51b81526020600482015260096024820152681b9bdd08199bdd5b9960ba1b60448201526064016102ee565b600481015460ff1615801561044657506004810154610100900460ff16155b61047b5760405162461bcd60e51b81526004016102ee90602080825260049082015263646f6e6560e01b604082015260600190565b600061271060035483600301546104929190611305565b61049c9190611322565b905060008183600301546104b09190611344565b60048401805460ff1916600117905560028401549091506001600160a01b03166106255760018301546040516000916001600160a01b03169083908381818185875af1925050503d8060008114610523576040519150601f19603f3d011682016040523d82523d6000602084013e610528565b606091505b505090508061056b5760405162461bcd60e51b815260206004820152600f60248201526e1c185e5959481e19995c8819985a5b608a1b60448201526064016102ee565b60008311801561058557506002546001600160a01b031615155b1561061f576002546040516000916001600160a01b03169085908381818185875af1925050503d80600081146105d7576040519150601f19603f3d011682016040523d82523d6000602084013e6105dc565b606091505b505090508061061d5760405162461bcd60e51b815260206004820152600d60248201526c199959481e19995c8819985a5b609a1b60448201526064016102ee565b505b506107b8565b6002830154600184015460405163a9059cbb60e01b81526001600160a01b0391821660048201526024810184905291169063a9059cbb906044016020604051808303816000875af115801561067e573d6000803e3d6000fd5b505050506040513d601f19601f820116820180604052508101906106a29190611357565b6106e15760405162461bcd60e51b815260206004820152601060248201526f195c98cc8c081c185e59594819985a5b60821b60448201526064016102ee565b6000821180156106fb57506002546001600160a01b031615155b156107b857600283810154905460405163a9059cbb60e01b81526001600160a01b0391821660048201526024810185905291169063a9059cbb906044016020604051808303816000875af1158015610757573d6000803e3d6000fd5b505050506040513d601f19601f8201168201806040525081019061077b9190611357565b6107b85760405162461bcd60e51b815260206004820152600e60248201526d195c98cc8c081999594819985a5b60921b60448201526064016102ee565b600183015460408051838152602081018590526001600160a01b039092169186917fbaa21fb6000fbb6d014fac9cd1b0726799e6f352a967157a59f4b2da8ef32211910160405180910390a3505060016000555050565b6001546001600160a01b031633146108395760405162461bcd60e51b81526004016102ee906112a7565b60026000540361085b5760405162461bcd60e51b81526004016102ee906112cb565b6002600090815581815260046020526040902060038101546108ab5760405162461bcd60e51b81526020600482015260096024820152681b9bdd08199bdd5b9960ba1b60448201526064016102ee565b600481015460ff161580156108ca57506004810154610100900460ff16155b6108ff5760405162461bcd60e51b81526004016102ee90602080825260049082015263646f6e6560e01b604082015260600190565b60048101805461ff00191661010017905560028101546001600160a01b03166109bc57805460038201546040516000926001600160a01b031691908381818185875af1925050503d8060008114610972576040519150601f19603f3d011682016040523d82523d6000602084013e610977565b606091505b50509050806109b65760405162461bcd60e51b815260206004820152600b60248201526a1c99599d5b990819985a5b60aa1b60448201526064016102ee565b50610a7c565b60028101548154600383015460405163a9059cbb60e01b81526001600160a01b039283166004820152602481019190915291169063a9059cbb906044016020604051808303816000875af1158015610a18573d6000803e3d6000fd5b505050506040513d601f19601f82011682018060405250810190610a3c9190611357565b610a7c5760405162461bcd60e51b8152602060048201526011602482015270195c98cc8c081c99599d5b990819985a5b607a1b60448201526064016102ee565b805460038201546040519081526001600160a01b039091169083907ff552ca82e113ac3c539c3d617f29fcd19c172a0c75dad017555c9e109f7fe1839060200160405180910390a350506001600055565b600260005403610aef5760405162461bcd60e51b81526004016102ee906112cb565b600260005534610b305760405162461bcd60e51b815260206004820152600c60248201526b1e995c9bc819195c1bdcda5d60a21b60448201526064016102ee565b610b3e823383600034610f3d565b50506001600055565b6001546001600160a01b03163314610b715760405162461bcd60e51b81526004016102ee906112a7565b6003829055600280546001600160a01b0319166001600160a01b0383169081179091556040805184815260208101929092527f7cfad8b150be9751a5386cc4e0f549618032ff63d14fab4f77cd4b0aaaedc242910160405180910390a15050565b6001546001600160a01b03163314610bfc5760405162461bcd60e51b81526004016102ee906112a7565b600260005403610c1e5760405162461bcd60e51b81526004016102ee906112cb565b60026000556001600160a01b038216610c625760405162461bcd60e51b81526004016102ee906020808252600490820152630746f3d360e41b604082015260600190565b6001600160a01b038316610d09576000826001600160a01b03168260405160006040518083038185875af1925050503d8060008114610cbd576040519150601f19603f3d011682016040523d82523d6000602084013e610cc2565b606091505b5050905080610d035760405162461bcd60e51b815260206004820152600d60248201526c1dda5d1a191c985dc819985a5b609a1b60448201526064016102ee565b50610dbe565b60405163a9059cbb60e01b81526001600160a01b0383811660048301526024820183905284169063a9059cbb906044016020604051808303816000875af1158015610d58573d6000803e3d6000fd5b505050506040513d601f19601f82011682018060405250810190610d7c9190611357565b610dbe5760405162461bcd60e51b8152602060048201526013602482015272195c98cc8c081dda5d1a191c985dc819985a5b606a1b60448201526064016102ee565b5050600160005550565b600260005403610dea5760405162461bcd60e51b81526004016102ee906112cb565b60026000556001600160a01b038216610e2f5760405162461bcd60e51b81526020600482015260076024820152660746f6b656e3d360cc1b60448201526064016102ee565b60008111610e6e5760405162461bcd60e51b815260206004820152600c60248201526b1e995c9bc819195c1bdcda5d60a21b60448201526064016102ee565b610e7b8433858585610f3d565b6040516323b872dd60e01b8152336004820152306024820152604481018290526001600160a01b038316906323b872dd906064016020604051808303816000875af1158015610ece573d6000803e3d6000fd5b505050506040513d601f19601f82011682018060405250810190610ef29190611357565b610f325760405162461bcd60e51b81526020600482015260116024820152701d1c985b9cd9995c919c9bdb4819985a5b607a1b60448201526064016102ee565b505060016000555050565b6000858152600460205260409020600381015415610f865760405162461bcd60e51b815260206004820152600660248201526565786973747360d01b60448201526064016102ee565b6001600160a01b038416610fc65760405162461bcd60e51b8152602060048201526007602482015266070617965653d360cc1b60448201526064016102ee565b6040518060e00160405280866001600160a01b03168152602001856001600160a01b03168152602001846001600160a01b031681526020018381526020016000151581526020016000151581526020014267ffffffffffffffff168152506004600088815260200190815260200160002060008201518160000160006101000a8154816001600160a01b0302191690836001600160a01b0316021790555060208201518160010160006101000a8154816001600160a01b0302191690836001600160a01b0316021790555060408201518160020160006101000a8154816001600160a01b0302191690836001600160a01b031602179055506060820151816003015560808201518160040160006101000a81548160ff02191690831515021790555060a08201518160040160016101000a81548160ff02191690831515021790555060c08201518160040160026101000a81548167ffffffffffffffff021916908367ffffffffffffffff160217905550905050836001600160a01b0316856001600160a01b0316877f3b57f71368ad1e9c529271d947f57e4f712a4b2366c5a8787716958f196aac4386866040516111949291906001600160a01b03929092168252602082015260400190565b60405180910390a4505050505050565b80356001600160a01b03811681146111bb57600080fd5b919050565b6000602082840312156111d257600080fd5b6111db826111a4565b9392505050565b6000602082840312156111f457600080fd5b5035919050565b6000806040838503121561120e57600080fd5b8235915061121e602084016111a4565b90509250929050565b60008060006060848603121561123c57600080fd5b611245846111a4565b9250611253602085016111a4565b9150604084013590509250925092565b6000806000806080858703121561127957600080fd5b84359350611289602086016111a4565b9250611297604086016111a4565b9396929550929360600135925050565b6020808252600a908201526937b7363c9037bbb732b960b11b604082015260600190565b6020808252600a90820152697265656e7472616e637960b01b604082015260600190565b634e487b7160e01b600052601160045260246000fd5b808202811582820484141761131c5761131c6112ef565b92915050565b60008261133f57634e487b7160e01b600052601260045260246000fd5b500490565b8181038181111561131c5761131c6112ef565b60006020828403121561136957600080fd5b815180151581146111db57600080fdfea26469706673582212201674e201164b09b3562cc85e193f228df463043334996e1a87e983a0057316dd64736f6c63430008130033",
  "linkReferences": {},
  "deployedLinkReferences": {}
}